{
  "contractName": "PurchaseCreator",
  "abi": [
    {
      "constant": true,
      "inputs": [],
      "name": "nextPurchaseId",
      "outputs": [
        {
          "name": "",
          "type": "uint256"
        }
      ],
      "payable": false,
      "stateMutability": "view",
      "type": "function"
    },
    {
      "constant": false,
      "inputs": [],
      "name": "pauseContract",
      "outputs": [],
      "payable": false,
      "stateMutability": "nonpayable",
      "type": "function"
    },
    {
      "constant": true,
      "inputs": [
        {
          "name": "",
          "type": "uint256"
        }
      ],
      "name": "purchases",
      "outputs": [
        {
          "name": "seller",
          "type": "address"
        },
        {
          "name": "txnValue",
          "type": "uint256"
        }
      ],
      "payable": false,
      "stateMutability": "view",
      "type": "function"
    },
    {
      "constant": true,
      "inputs": [],
      "name": "owner",
      "outputs": [
        {
          "name": "",
          "type": "address"
        }
      ],
      "payable": false,
      "stateMutability": "view",
      "type": "function"
    },
    {
      "constant": false,
      "inputs": [
        {
          "name": "seller",
          "type": "address"
        },
        {
          "name": "txnValue",
          "type": "uint256"
        }
      ],
      "name": "newSimplePurchaseContract",
      "outputs": [
        {
          "name": "_newPurch",
          "type": "address"
        },
        {
          "name": "PurchaseId",
          "type": "uint256"
        }
      ],
      "payable": true,
      "stateMutability": "payable",
      "type": "function"
    },
    {
      "inputs": [],
      "payable": false,
      "stateMutability": "nonpayable",
      "type": "constructor"
    }
  ],
  "bytecode": "0x60606040526000600260006101000a81548160ff021916908315150217905550341561002a57600080fd5b33600260016101000a81548173ffffffffffffffffffffffffffffffffffffffff021916908373ffffffffffffffffffffffffffffffffffffffff160217905550610fc38061007a6000396000f30060606040526004361061006d576000357c0100000000000000000000000000000000000000000000000000000000900463ffffffff16806323b4a7a314610072578063439766ce1461009b5780638392fe31146100b05780638da5cb5b1461011a578063e5ae0dc01461016f575b600080fd5b341561007d57600080fd5b6100856101ed565b6040518082815260200191505060405180910390f35b34156100a657600080fd5b6100ae6101f3565b005b34156100bb57600080fd5b6100d1600480803590602001909190505061027b565b604051808373ffffffffffffffffffffffffffffffffffffffff1673ffffffffffffffffffffffffffffffffffffffff1681526020018281526020019250505060405180910390f35b341561012557600080fd5b61012d6102bf565b604051808273ffffffffffffffffffffffffffffffffffffffff1673ffffffffffffffffffffffffffffffffffffffff16815260200191505060405180910390f35b6101a4600480803573ffffffffffffffffffffffffffffffffffffffff169060200190919080359060200190919050506102e5565b604051808373ffffffffffffffffffffffffffffffffffffffff1673ffffffffffffffffffffffffffffffffffffffff1681526020018281526020019250505060405180910390f35b60005481565b600260019054906101000a900473ffffffffffffffffffffffffffffffffffffffff1673ffffffffffffffffffffffffffffffffffffffff163373ffffffffffffffffffffffffffffffffffffffff1614151561024f57600080fd5b600260009054906101000a900460ff1615600260006101000a81548160ff021916908315150217905550565b60016020528060005260406000206000915090508060000160009054906101000a900473ffffffffffffffffffffffffffffffffffffffff16908060010154905082565b600260019054906101000a900473ffffffffffffffffffffffffffffffffffffffff1681565b60008060001515600260009054906101000a900460ff16151514151561030a57600080fd5b60008081548092919060010191905055905033935034925060408051908101604052808573ffffffffffffffffffffffffffffffffffffffff168152602001848152506001600083815260200190815260200160002060008201518160000160006101000a81548173ffffffffffffffffffffffffffffffffffffffff021916908373ffffffffffffffffffffffffffffffffffffffff160217905550602082015181600101559050508284826103bf610422565b808373ffffffffffffffffffffffffffffffffffffffff1673ffffffffffffffffffffffffffffffffffffffff168152602001828152602001925050506040518091039082f080151561041157600080fd5b905091508181915091509250929050565b604051610b65806104338339019056006060604052604051604080610b658339810160405280805190602001909190805190602001909190505060003411151561003857600080fd5b3460008190555081600160006101000a81548173ffffffffffffffffffffffffffffffffffffffff021916908373ffffffffffffffffffffffffffffffffffffffff16021790555073627306090abab3a6e1400e9345bc60c78a8bef57600360006101000a81548173ffffffffffffffffffffffffffffffffffffffff021916908373ffffffffffffffffffffffffffffffffffffffff1602179055506000600360146101000a81548160ff021916908360048111156100f457fe5b0217905550806004819055505050610a54806101116000396000f3006060604052600436106100ba576000357c0100000000000000000000000000000000000000000000000000000000900463ffffffff1680631a5cdea0146100bf578063200d2ed2146100c95780632a7ce0261461010057806335a063b4146101555780633b010c791461016a5780633b2b30ca1461017f578063435fbd55146101945780637150d8ae146101a957806372f9772e146101fe578063df19a73a14610213578063f851a4401461023c578063f9fdb9bf14610291575b600080fd5b6100c76102ba565b005b34156100d457600080fd5b6100dc610395565b604051808260048111156100ec57fe5b60ff16815260200191505060405180910390f35b341561010b57600080fd5b6101136103a8565b604051808273ffffffffffffffffffffffffffffffffffffffff1673ffffffffffffffffffffffffffffffffffffffff16815260200191505060405180910390f35b341561016057600080fd5b6101686103ce565b005b341561017557600080fd5b61017d610535565b005b341561018a57600080fd5b610192610619565b005b341561019f57600080fd5b6101a76106fc565b005b34156101b457600080fd5b6101bc610866565b604051808273ffffffffffffffffffffffffffffffffffffffff1673ffffffffffffffffffffffffffffffffffffffff16815260200191505060405180910390f35b341561020957600080fd5b61021161088c565b005b341561021e57600080fd5b6102266109f6565b6040518082815260200191505060405180910390f35b341561024757600080fd5b61024f6109fc565b604051808273ffffffffffffffffffffffffffffffffffffffff1673ffffffffffffffffffffffffffffffffffffffff16815260200191505060405180910390f35b341561029c57600080fd5b6102a4610a22565b6040518082815260200191505060405180910390f35b60008060048111156102c857fe5b600360149054906101000a900460ff1660048111156102e357fe5b1415156102ef57600080fd5b600054341480151561030057600080fd5b7f280e6e35c08a7a036d46ccb0d40c06cec3c0505efea1aac39dad958d74df986260405160405180910390a133600260006101000a81548173ffffffffffffffffffffffffffffffffffffffff021916908373ffffffffffffffffffffffffffffffffffffffff1602179055506001600360146101000a81548160ff0219169083600481111561038c57fe5b02179055505050565b600360149054906101000a900460ff1681565b600160009054906101000a900473ffffffffffffffffffffffffffffffffffffffff1681565b6000600160009054906101000a900473ffffffffffffffffffffffffffffffffffffffff1673ffffffffffffffffffffffffffffffffffffffff163373ffffffffffffffffffffffffffffffffffffffff1614151561042c57600080fd5b600080600481111561043a57fe5b600360149054906101000a900460ff16600481111561045557fe5b14151561046157600080fd5b7f72c874aeff0b183a56e2b79c71b46e1aed4dee5e09862134b8821ba2fddbf8bf60405160405180910390a16004600360146101000a81548160ff021916908360048111156104ac57fe5b02179055503073ffffffffffffffffffffffffffffffffffffffff1631915060009150600160009054906101000a900473ffffffffffffffffffffffffffffffffffffffff1673ffffffffffffffffffffffffffffffffffffffff166108fc839081150290604051600060405180830381858888f19350505050151561053157600080fd5b5050565b600360009054906101000a900473ffffffffffffffffffffffffffffffffffffffff1673ffffffffffffffffffffffffffffffffffffffff163373ffffffffffffffffffffffffffffffffffffffff1614151561059157600080fd5b600180600481111561059f57fe5b600360149054906101000a900460ff1660048111156105ba57fe5b1415156105c657600080fd5b7fd08a7968e26067978414b2006f2d4840bc398c2e523ca840eb5c54ad7232e0b560405160405180910390a16002600360146101000a81548160ff0219169083600481111561061157fe5b021790555050565b600360009054906101000a900473ffffffffffffffffffffffffffffffffffffffff1673ffffffffffffffffffffffffffffffffffffffff163373ffffffffffffffffffffffffffffffffffffffff1614151561067557600080fd5b600180600481111561068357fe5b600360149054906101000a900460ff16600481111561069e57fe5b1415156106aa57600080fd5b7fa2fae33f8c056851788af80f3dd0e5d1a21763cde2779f56905c10fc8517921c60405160405180910390a160038060146101000a81548160ff021916908360048111156106f457fe5b021790555050565b6000600160009054906101000a900473ffffffffffffffffffffffffffffffffffffffff1673ffffffffffffffffffffffffffffffffffffffff163373ffffffffffffffffffffffffffffffffffffffff1614151561075a57600080fd5b600380600481111561076857fe5b600360149054906101000a900460ff16600481111561078357fe5b14151561078f57600080fd5b60003073ffffffffffffffffffffffffffffffffffffffff1631141515156107b657600080fd5b3073ffffffffffffffffffffffffffffffffffffffff16319150600160009054906101000a900473ffffffffffffffffffffffffffffffffffffffff1673ffffffffffffffffffffffffffffffffffffffff166108fc839081150290604051600060405180830381858888f19350505050151561083257600080fd5b600091507f444fe9596c2226fd34593f48b7a515d064df201a347aeb9664ffdedd4dac16f260405160405180910390a15050565b600260009054906101000a900473ffffffffffffffffffffffffffffffffffffffff1681565b6000600260009054906101000a900473ffffffffffffffffffffffffffffffffffffffff1673ffffffffffffffffffffffffffffffffffffffff163373ffffffffffffffffffffffffffffffffffffffff161415156108ea57600080fd5b60028060048111156108f857fe5b600360149054906101000a900460ff16600481111561091357fe5b14151561091f57600080fd5b60003073ffffffffffffffffffffffffffffffffffffffff16311415151561094657600080fd5b3073ffffffffffffffffffffffffffffffffffffffff16319150600260009054906101000a900473ffffffffffffffffffffffffffffffffffffffff1673ffffffffffffffffffffffffffffffffffffffff166108fc839081150290604051600060405180830381858888f1935050505015156109c257600080fd5b600091507fb7fd75543a12f40041a2112266e2e283478672e6f8adf8e702818e3c0db33fb060405160405180910390a15050565b60005481565b600360009054906101000a900473ffffffffffffffffffffffffffffffffffffffff1681565b600454815600a165627a7a723058208841a1cba169ec58e5eecf85a76d77f009778a75f21e93dbbef6152cc4be60b60029a165627a7a72305820dbc613d5b8a30d7e796ef9a7dd93b07c32b9ced41da35d4d9d8e7b8ab94b8a160029",
  "source": "pragma solidity ^0.4.18;\nimport \"./SimplePurchase.sol\";\n\n//----------------------------------------------------------------\n//FACTORY CONTRACT - Master contract that creates individual purchase contracts\n\n//Info on mapping: https://ethereum.stackexchange.com/questions/9893/how-does-mapping-in-solidity-work#9894\n//Info on contract creation: http://solidity.readthedocs.io/en/develop/contracts.html\n\ncontract PurchaseCreator {\n\n    //Create struct to hold txn data\n    struct PurchaseData {\n        address seller;\n        uint txnValue;\n    }\n\n    //Mapping Transaction ID's to each transaction so we can easily track later\n    uint public nextPurchaseId;\n    mapping(uint => PurchaseData) public purchases;\n\n    //Set variables for pausing contract (pauseContract) function\n    bool private stopped = false;\n    address public owner;\n\n    //Enforce ownership for admin only functions\n    modifier isAdmin() {\n        require(msg.sender == owner);\n        _;\n    }\n\n    //Enforce pause button function\n    modifier isActive() {\n        require(stopped == false);\n        _;\n    }\n\n    //Set Switcheroo as owner of contract\n    function PurchaseCreator() public {\n        owner = msg.sender;\n    }\n\n    //Creates new Purchase child contract with a PurchaseId\n    function newSimplePurchaseContract(address seller, uint txnValue) isActive public payable returns (SimplePurchase _newPurch, uint PurchaseId) {\n\n        //Increment PurchaseId, set values for PurchaseData struct\n        PurchaseId = nextPurchaseId++;\n        seller = msg.sender;\n        txnValue = msg.value;\n        purchases[PurchaseId] = PurchaseData(seller, txnValue);\n\n        //Create new SimplePurchase child contract\n        _newPurch = (new SimplePurchase).value(txnValue)(seller, PurchaseId);\n\n        return(_newPurch, PurchaseId);\n    }\n\n    //Pause contract operation\n    function pauseContract() isAdmin public {\n        stopped = !stopped;\n    }\n}\n",
  "sourcePath": "/Users/nickneuman/Switcheroo/purchase-contract/contracts/PurchaseCreator.sol",
  "compiler": {
    "name": "solc",
    "version": "0.4.18+commit.9cf6e910.Emscripten.clang"
  },
  "schemaVersion": "1.0.1",
  "updatedAt": "2018-01-21T19:01:52.401Z"
}