{
  "contractName": "SimplePurchase",
  "abi": [
    {
      "constant": false,
      "inputs": [],
      "name": "acceptPurchaseTerms",
      "outputs": [],
      "payable": true,
      "stateMutability": "payable",
      "type": "function"
    },
    {
      "constant": true,
      "inputs": [],
      "name": "status",
      "outputs": [
        {
          "name": "",
          "type": "uint8"
        }
      ],
      "payable": false,
      "stateMutability": "view",
      "type": "function"
    },
    {
      "constant": true,
      "inputs": [],
      "name": "_seller",
      "outputs": [
        {
          "name": "",
          "type": "address"
        }
      ],
      "payable": false,
      "stateMutability": "view",
      "type": "function"
    },
    {
      "constant": false,
      "inputs": [],
      "name": "abort",
      "outputs": [],
      "payable": false,
      "stateMutability": "nonpayable",
      "type": "function"
    },
    {
      "constant": false,
      "inputs": [],
      "name": "setStatusSellerCanceled",
      "outputs": [],
      "payable": false,
      "stateMutability": "nonpayable",
      "type": "function"
    },
    {
      "constant": false,
      "inputs": [],
      "name": "setStatusDelivered",
      "outputs": [],
      "payable": false,
      "stateMutability": "nonpayable",
      "type": "function"
    },
    {
      "constant": false,
      "inputs": [],
      "name": "withdrawSellerFunds",
      "outputs": [],
      "payable": false,
      "stateMutability": "nonpayable",
      "type": "function"
    },
    {
      "constant": true,
      "inputs": [],
      "name": "buyer",
      "outputs": [
        {
          "name": "",
          "type": "address"
        }
      ],
      "payable": false,
      "stateMutability": "view",
      "type": "function"
    },
    {
      "constant": false,
      "inputs": [],
      "name": "withdrawBuyerFunds",
      "outputs": [],
      "payable": false,
      "stateMutability": "nonpayable",
      "type": "function"
    },
    {
      "constant": true,
      "inputs": [],
      "name": "txnValue",
      "outputs": [
        {
          "name": "",
          "type": "uint256"
        }
      ],
      "payable": false,
      "stateMutability": "view",
      "type": "function"
    },
    {
      "constant": true,
      "inputs": [],
      "name": "admin",
      "outputs": [
        {
          "name": "",
          "type": "address"
        }
      ],
      "payable": false,
      "stateMutability": "view",
      "type": "function"
    },
    {
      "constant": true,
      "inputs": [],
      "name": "_PurchaseId",
      "outputs": [
        {
          "name": "",
          "type": "uint256"
        }
      ],
      "payable": false,
      "stateMutability": "view",
      "type": "function"
    },
    {
      "inputs": [
        {
          "name": "seller",
          "type": "address"
        },
        {
          "name": "PurchaseId",
          "type": "uint256"
        }
      ],
      "payable": true,
      "stateMutability": "payable",
      "type": "constructor"
    },
    {
      "anonymous": false,
      "inputs": [],
      "name": "Aborted",
      "type": "event"
    },
    {
      "anonymous": false,
      "inputs": [],
      "name": "PurchaseApproved",
      "type": "event"
    },
    {
      "anonymous": false,
      "inputs": [],
      "name": "SellerCanceled",
      "type": "event"
    },
    {
      "anonymous": false,
      "inputs": [],
      "name": "ItemDelivered",
      "type": "event"
    },
    {
      "anonymous": false,
      "inputs": [],
      "name": "BuyerPayout",
      "type": "event"
    },
    {
      "anonymous": false,
      "inputs": [],
      "name": "SellerPayout",
      "type": "event"
    }
  ],
  "bytecode": "0x6060604052604051604080610b658339810160405280805190602001909190805190602001909190505060003411151561003857600080fd5b3460008190555081600160006101000a81548173ffffffffffffffffffffffffffffffffffffffff021916908373ffffffffffffffffffffffffffffffffffffffff16021790555073627306090abab3a6e1400e9345bc60c78a8bef57600360006101000a81548173ffffffffffffffffffffffffffffffffffffffff021916908373ffffffffffffffffffffffffffffffffffffffff1602179055506000600360146101000a81548160ff021916908360048111156100f457fe5b0217905550806004819055505050610a54806101116000396000f3006060604052600436106100ba576000357c0100000000000000000000000000000000000000000000000000000000900463ffffffff1680631a5cdea0146100bf578063200d2ed2146100c95780632a7ce0261461010057806335a063b4146101555780633b010c791461016a5780633b2b30ca1461017f578063435fbd55146101945780637150d8ae146101a957806372f9772e146101fe578063df19a73a14610213578063f851a4401461023c578063f9fdb9bf14610291575b600080fd5b6100c76102ba565b005b34156100d457600080fd5b6100dc610395565b604051808260048111156100ec57fe5b60ff16815260200191505060405180910390f35b341561010b57600080fd5b6101136103a8565b604051808273ffffffffffffffffffffffffffffffffffffffff1673ffffffffffffffffffffffffffffffffffffffff16815260200191505060405180910390f35b341561016057600080fd5b6101686103ce565b005b341561017557600080fd5b61017d610535565b005b341561018a57600080fd5b610192610619565b005b341561019f57600080fd5b6101a76106fc565b005b34156101b457600080fd5b6101bc610866565b604051808273ffffffffffffffffffffffffffffffffffffffff1673ffffffffffffffffffffffffffffffffffffffff16815260200191505060405180910390f35b341561020957600080fd5b61021161088c565b005b341561021e57600080fd5b6102266109f6565b6040518082815260200191505060405180910390f35b341561024757600080fd5b61024f6109fc565b604051808273ffffffffffffffffffffffffffffffffffffffff1673ffffffffffffffffffffffffffffffffffffffff16815260200191505060405180910390f35b341561029c57600080fd5b6102a4610a22565b6040518082815260200191505060405180910390f35b60008060048111156102c857fe5b600360149054906101000a900460ff1660048111156102e357fe5b1415156102ef57600080fd5b600054341480151561030057600080fd5b7f280e6e35c08a7a036d46ccb0d40c06cec3c0505efea1aac39dad958d74df986260405160405180910390a133600260006101000a81548173ffffffffffffffffffffffffffffffffffffffff021916908373ffffffffffffffffffffffffffffffffffffffff1602179055506001600360146101000a81548160ff0219169083600481111561038c57fe5b02179055505050565b600360149054906101000a900460ff1681565b600160009054906101000a900473ffffffffffffffffffffffffffffffffffffffff1681565b6000600160009054906101000a900473ffffffffffffffffffffffffffffffffffffffff1673ffffffffffffffffffffffffffffffffffffffff163373ffffffffffffffffffffffffffffffffffffffff1614151561042c57600080fd5b600080600481111561043a57fe5b600360149054906101000a900460ff16600481111561045557fe5b14151561046157600080fd5b7f72c874aeff0b183a56e2b79c71b46e1aed4dee5e09862134b8821ba2fddbf8bf60405160405180910390a16004600360146101000a81548160ff021916908360048111156104ac57fe5b02179055503073ffffffffffffffffffffffffffffffffffffffff1631915060009150600160009054906101000a900473ffffffffffffffffffffffffffffffffffffffff1673ffffffffffffffffffffffffffffffffffffffff166108fc839081150290604051600060405180830381858888f19350505050151561053157600080fd5b5050565b600360009054906101000a900473ffffffffffffffffffffffffffffffffffffffff1673ffffffffffffffffffffffffffffffffffffffff163373ffffffffffffffffffffffffffffffffffffffff1614151561059157600080fd5b600180600481111561059f57fe5b600360149054906101000a900460ff1660048111156105ba57fe5b1415156105c657600080fd5b7fd08a7968e26067978414b2006f2d4840bc398c2e523ca840eb5c54ad7232e0b560405160405180910390a16002600360146101000a81548160ff0219169083600481111561061157fe5b021790555050565b600360009054906101000a900473ffffffffffffffffffffffffffffffffffffffff1673ffffffffffffffffffffffffffffffffffffffff163373ffffffffffffffffffffffffffffffffffffffff1614151561067557600080fd5b600180600481111561068357fe5b600360149054906101000a900460ff16600481111561069e57fe5b1415156106aa57600080fd5b7fa2fae33f8c056851788af80f3dd0e5d1a21763cde2779f56905c10fc8517921c60405160405180910390a160038060146101000a81548160ff021916908360048111156106f457fe5b021790555050565b6000600160009054906101000a900473ffffffffffffffffffffffffffffffffffffffff1673ffffffffffffffffffffffffffffffffffffffff163373ffffffffffffffffffffffffffffffffffffffff1614151561075a57600080fd5b600380600481111561076857fe5b600360149054906101000a900460ff16600481111561078357fe5b14151561078f57600080fd5b60003073ffffffffffffffffffffffffffffffffffffffff1631141515156107b657600080fd5b3073ffffffffffffffffffffffffffffffffffffffff16319150600160009054906101000a900473ffffffffffffffffffffffffffffffffffffffff1673ffffffffffffffffffffffffffffffffffffffff166108fc839081150290604051600060405180830381858888f19350505050151561083257600080fd5b600091507f444fe9596c2226fd34593f48b7a515d064df201a347aeb9664ffdedd4dac16f260405160405180910390a15050565b600260009054906101000a900473ffffffffffffffffffffffffffffffffffffffff1681565b6000600260009054906101000a900473ffffffffffffffffffffffffffffffffffffffff1673ffffffffffffffffffffffffffffffffffffffff163373ffffffffffffffffffffffffffffffffffffffff161415156108ea57600080fd5b60028060048111156108f857fe5b600360149054906101000a900460ff16600481111561091357fe5b14151561091f57600080fd5b60003073ffffffffffffffffffffffffffffffffffffffff16311415151561094657600080fd5b3073ffffffffffffffffffffffffffffffffffffffff16319150600260009054906101000a900473ffffffffffffffffffffffffffffffffffffffff1673ffffffffffffffffffffffffffffffffffffffff166108fc839081150290604051600060405180830381858888f1935050505015156109c257600080fd5b600091507fb7fd75543a12f40041a2112266e2e283478672e6f8adf8e702818e3c0db33fb060405160405180910390a15050565b60005481565b600360009054906101000a900473ffffffffffffffffffffffffffffffffffffffff1681565b600454815600a165627a7a723058208841a1cba169ec58e5eecf85a76d77f009778a75f21e93dbbef6152cc4be60b60029",
  "source": "pragma solidity ^0.4.18;\nimport \"./PurchaseCreator.sol\";\n\n//------------------------------------------------------------------------\n//CHILD CONTRACT\ncontract SimplePurchase {\n    uint public txnValue;\n    address public _seller;\n    address public buyer;\n    address public admin;\n    enum Status {initialized, locked, seller_canceled, delivered, inactive}\n    Status public status;\n    uint public _PurchaseId;\n\n\n    function SimplePurchase(address seller, uint PurchaseId)\n        public\n        payable\n    {\n        require(msg.value > 0);\n        txnValue = msg.value;\n        _seller = seller;\n        admin = 0x627306090abaB3A6e1400e9345bC60c78a8BEf57;\n        status = Status.initialized;\n        _PurchaseId = PurchaseId;\n    }\n\n    modifier condition(bool _condition) {\n        require(_condition);\n        _;\n    }\n\n    modifier onlyBuyer() {\n        require(msg.sender == buyer);\n        _;\n    }\n\n    modifier onlySeller() {\n        require(msg.sender == _seller);\n        _;\n    }\n\n    modifier onlyAdmin() {\n        require(msg.sender == admin);\n        _;\n    }\n\n    modifier requireStatus(Status _status) {\n        require(status == _status);\n        _;\n    }\n\n    event Aborted();\n    event PurchaseApproved();\n    event SellerCanceled();\n    event ItemDelivered();\n    event BuyerPayout();\n    event SellerPayout();\n\n    /*function checkBalance() view public returns(uint) {\n        uint currentBalance = this.balance;\n        return(currentBalance);\n    }*/\n\n    function inState(Status _status) view private returns(Status) {\n        status == _status;\n        return status;\n    }\n\n    /// Abort the purchase and reclaim the ether.\n    /// Can only be called by the seller before\n    /// the contract is locked.\n    function abort()\n        onlySeller\n        requireStatus(Status.initialized)\n        public\n    {\n        Aborted();\n        status = Status.inactive;\n\n        uint _balance = this.balance;\n        _balance = 0;\n        _seller.transfer(_balance);\n    }\n\n    /// Approve the purchase as buyer.\n    /// The ether will be locked until state is changed by admin\n    function acceptPurchaseTerms()\n        requireStatus(Status.initialized)\n        condition(msg.value == txnValue)\n        payable\n        public\n    {\n        PurchaseApproved();\n        buyer = msg.sender;\n        status = Status.locked;\n    }\n\n    // This sets status to allow seller withdrawal\n    function setStatusDelivered()\n        onlyAdmin\n        requireStatus(Status.locked)\n        public\n    {\n        ItemDelivered();\n        status = Status.delivered;\n    }\n\n    // Seller failed to mail item within 72 hrs of buyer locking money\n    //TODO can calculate this on chain so we avoid a new call\n    function setStatusSellerCanceled()\n        onlyAdmin\n        requireStatus(Status.locked)\n        public\n    {\n        SellerCanceled();\n        status = Status.seller_canceled;\n    }\n\n    // Allows buyer to withdraw funds depending on the terminal state\n    function withdrawBuyerFunds()\n        onlyBuyer\n        requireStatus(Status.seller_canceled)\n        public\n    {\n        // Check that this func hasn't already been called for this txn\n        require(this.balance != 0);\n\n        // Run payout calculations & zero out balances\n        uint _balance = this.balance;\n\n\n        // Transfer payouts\n        buyer.transfer(_balance);\n        _balance = 0;\n        BuyerPayout();\n    }\n\n    // Allows seller to withdraw funds depending on the terminal state\n    function withdrawSellerFunds()\n        onlySeller\n        requireStatus(Status.delivered)\n        public\n    {\n        // Check that this func hasn't already been called for this txn\n        require(this.balance != 0);\n\n        // Run payout calculations & zero out balances\n        uint _balance = this.balance;\n\n\n        // Transfer payouts\n        _seller.transfer(_balance);\n        _balance = 0;\n        SellerPayout();\n    }\n\n}\n",
  "sourcePath": "/Users/nickneuman/Switcheroo/purchase-contract/contracts/SimplePurchase.sol",
  "compiler": {
    "name": "solc",
    "version": "0.4.18+commit.9cf6e910.Emscripten.clang"
  },
  "schemaVersion": "1.0.1",
  "updatedAt": "2018-01-22T14:44:37.183Z"
}